{
  "contractName": "Card",
  "abi": [
    {
      "constant": true,
      "inputs": [],
      "name": "player2Escrow",
      "outputs": [
        {
          "name": "",
          "type": "uint256"
        }
      ],
      "payable": false,
      "stateMutability": "view",
      "type": "function"
    },
    {
      "constant": true,
      "inputs": [],
      "name": "winnerNumber",
      "outputs": [
        {
          "name": "",
          "type": "uint256"
        }
      ],
      "payable": false,
      "stateMutability": "view",
      "type": "function"
    },
    {
      "constant": true,
      "inputs": [],
      "name": "player1Escrow",
      "outputs": [
        {
          "name": "",
          "type": "uint256"
        }
      ],
      "payable": false,
      "stateMutability": "view",
      "type": "function"
    },
    {
      "constant": true,
      "inputs": [],
      "name": "player2",
      "outputs": [
        {
          "name": "",
          "type": "address"
        }
      ],
      "payable": false,
      "stateMutability": "view",
      "type": "function"
    },
    {
      "constant": true,
      "inputs": [],
      "name": "isPlayer2SetUp",
      "outputs": [
        {
          "name": "",
          "type": "bool"
        }
      ],
      "payable": false,
      "stateMutability": "view",
      "type": "function"
    },
    {
      "constant": true,
      "inputs": [
        {
          "name": "",
          "type": "uint256"
        }
      ],
      "name": "cardsPlayerOne",
      "outputs": [
        {
          "name": "",
          "type": "bytes32"
        }
      ],
      "payable": false,
      "stateMutability": "view",
      "type": "function"
    },
    {
      "constant": true,
      "inputs": [],
      "name": "playerTwoLife",
      "outputs": [
        {
          "name": "",
          "type": "uint256"
        }
      ],
      "payable": false,
      "stateMutability": "view",
      "type": "function"
    },
    {
      "constant": true,
      "inputs": [],
      "name": "playerOneLife",
      "outputs": [
        {
          "name": "",
          "type": "uint256"
        }
      ],
      "payable": false,
      "stateMutability": "view",
      "type": "function"
    },
    {
      "constant": true,
      "inputs": [],
      "name": "isPlayer1SetUp",
      "outputs": [
        {
          "name": "",
          "type": "bool"
        }
      ],
      "payable": false,
      "stateMutability": "view",
      "type": "function"
    },
    {
      "constant": true,
      "inputs": [
        {
          "name": "",
          "type": "uint256"
        }
      ],
      "name": "cardsPlayerTwo",
      "outputs": [
        {
          "name": "",
          "type": "bytes32"
        }
      ],
      "payable": false,
      "stateMutability": "view",
      "type": "function"
    },
    {
      "constant": true,
      "inputs": [],
      "name": "player1",
      "outputs": [
        {
          "name": "",
          "type": "address"
        }
      ],
      "payable": false,
      "stateMutability": "view",
      "type": "function"
    },
    {
      "inputs": [],
      "payable": true,
      "stateMutability": "payable",
      "type": "constructor"
    },
    {
      "constant": false,
      "inputs": [],
      "name": "setupPlayer2",
      "outputs": [],
      "payable": true,
      "stateMutability": "payable",
      "type": "function"
    },
    {
      "constant": false,
      "inputs": [
        {
          "name": "playerMessage",
          "type": "bytes"
        },
        {
          "name": "cardsCurrentPlayer",
          "type": "bytes32[]"
        },
        {
          "name": "playerLife",
          "type": "uint256"
        },
        {
          "name": "playerNonce",
          "type": "uint256"
        },
        {
          "name": "playerSequence",
          "type": "uint256"
        },
        {
          "name": "addressOfMessage",
          "type": "address"
        }
      ],
      "name": "verifyPlayerBalance",
      "outputs": [],
      "payable": false,
      "stateMutability": "nonpayable",
      "type": "function"
    }
  ],
  "bytecode": "0x60806040526000341161001157600080fd5b336000806101000a81548173ffffffffffffffffffffffffffffffffffffffff021916908373ffffffffffffffffffffffffffffffffffffffff16021790555034600281905550610f0f806100676000396000f3fe6080604052600436106100c25760003560e01c80636bf18bee1161007f578063bf500c7011610059578063bf500c70146103ec578063c6e4c44014610417578063c94d177514610446578063d30895e414610495576100c2565b80636bf18bee1461034357806381d142d81461037257806386963e58146103c1576100c2565b80631b0c7001146100c7578063329f86a8146102615780633f54b0331461028c578063451e408a146102b757806359a5f12d146102e257806367bf595414610339575b600080fd5b3480156100d357600080fd5b5061025f600480360360c08110156100ea57600080fd5b810190808035906020019064010000000081111561010757600080fd5b82018360208201111561011957600080fd5b8035906020019184600183028401116401000000008311171561013b57600080fd5b91908080601f016020809104026020016040519081016040528093929190818152602001838380828437600081840152601f19601f8201169050808301925050505050505091929192908035906020019064010000000081111561019e57600080fd5b8201836020820111156101b057600080fd5b803590602001918460208302840111640100000000831117156101d257600080fd5b919080806020026020016040519081016040528093929190818152602001838360200280828437600081840152601f19601f820116905080830192505050505050509192919290803590602001909291908035906020019092919080359060200190929190803573ffffffffffffffffffffffffffffffffffffffff1690602001909291905050506104ec565b005b34801561026d57600080fd5b50610276610c8d565b6040518082815260200191505060405180910390f35b34801561029857600080fd5b506102a1610c93565b6040518082815260200191505060405180910390f35b3480156102c357600080fd5b506102cc610c99565b6040518082815260200191505060405180910390f35b3480156102ee57600080fd5b506102f7610c9f565b604051808273ffffffffffffffffffffffffffffffffffffffff1673ffffffffffffffffffffffffffffffffffffffff16815260200191505060405180910390f35b610341610cc5565b005b34801561034f57600080fd5b50610358610d1c565b604051808215151515815260200191505060405180910390f35b34801561037e57600080fd5b506103ab6004803603602081101561039557600080fd5b8101908080359060200190929190505050610d2f565b6040518082815260200191505060405180910390f35b3480156103cd57600080fd5b506103d6610d50565b6040518082815260200191505060405180910390f35b3480156103f857600080fd5b50610401610d56565b6040518082815260200191505060405180910390f35b34801561042357600080fd5b5061042c610d5c565b604051808215151515815260200191505060405180910390f35b34801561045257600080fd5b5061047f6004803603602081101561046957600080fd5b8101908080359060200190929190505050610d6f565b6040518082815260200191505060405180910390f35b3480156104a157600080fd5b506104aa610d90565b604051808273ffffffffffffffffffffffffffffffffffffffff1673ffffffffffffffffffffffffffffffffffffffff16815260200191505060405180910390f35b600073ffffffffffffffffffffffffffffffffffffffff16600160009054906101000a900473ffffffffffffffffffffffffffffffffffffffff1673ffffffffffffffffffffffffffffffffffffffff161415610594576040517f08c379a000000000000000000000000000000000000000000000000000000000815260040180806020018281038252602d815260200180610e28602d913960400191505060405180910390fd5b60418651146105ee576040517f08c379a0000000000000000000000000000000000000000000000000000000008152600401808060200182810382526027815260200180610e556027913960400191505060405180910390fd5b6000809054906101000a900473ffffffffffffffffffffffffffffffffffffffff1673ffffffffffffffffffffffffffffffffffffffff168173ffffffffffffffffffffffffffffffffffffffff1614806106965750600160009054906101000a900473ffffffffffffffffffffffffffffffffffffffff1673ffffffffffffffffffffffffffffffffffffffff168173ffffffffffffffffffffffffffffffffffffffff16145b6106eb576040517f08c379a0000000000000000000000000000000000000000000000000000000008152600401808060200182810382526035815260200180610ea66035913960400191505060405180910390fd5b6000809054906101000a900473ffffffffffffffffffffffffffffffffffffffff1673ffffffffffffffffffffffffffffffffffffffff168173ffffffffffffffffffffffffffffffffffffffff161480156107545750600460009054906101000a900460ff16155b806107c55750600160009054906101000a900473ffffffffffffffffffffffffffffffffffffffff1673ffffffffffffffffffffffffffffffffffffffff168173ffffffffffffffffffffffffffffffffffffffff161480156107c45750600460019054906101000a900460ff16155b5b610837576040517f08c379a000000000000000000000000000000000000000000000000000000000815260040180806020018281038252601e8152602001807f23352054686520706c6179657220697320616c7265616479207365747570000081525060200191505060405180910390fd5b60006002549050600160009054906101000a900473ffffffffffffffffffffffffffffffffffffffff1673ffffffffffffffffffffffffffffffffffffffff168273ffffffffffffffffffffffffffffffffffffffff16141561089a5760035490505b60008487878660405160200180858152602001848051906020019060200280838360005b838110156108d95780820151818401526020810190506108be565b505050509050018381526020018281526020019450505050506040516020818303038152906040528051906020012060405160200180807f19457468657265756d205369676e6564204d6573736167653a0a333200000000815250601c01828152602001915050604051602081830303815290604052805190602001209050600080600060208b0151925060408b0151915060608b015160001a9050600060018583868660405160008152602001604052604051808581526020018460ff1660ff1681526020018381526020018281526020019450505050506020604051602081039080840390855afa1580156109d4573d6000803e3d6000fd5b5050506020604051035190508673ffffffffffffffffffffffffffffffffffffffff168173ffffffffffffffffffffffffffffffffffffffff1614610a64576040517f08c379a000000000000000000000000000000000000000000000000000000000815260040180806020018281038252602a815260200180610e7c602a913960400191505060405180910390fd5b6000809054906101000a900473ffffffffffffffffffffffffffffffffffffffff1673ffffffffffffffffffffffffffffffffffffffff168773ffffffffffffffffffffffffffffffffffffffff161415610af7578a60069080519060200190610acf929190610db5565b50896008819055506001600460006101000a81548160ff021916908315150217905550610b31565b8a60079080519060200190610b0d929190610db5565b50896009819055506001600460016101000a81548160ff0219169083151502179055505b600460009054906101000a900460ff168015610b595750600460019054906101000a900460ff165b15610c7f5760006008541415610bf6576002600581905550600160009054906101000a900473ffffffffffffffffffffffffffffffffffffffff1673ffffffffffffffffffffffffffffffffffffffff166108fc3073ffffffffffffffffffffffffffffffffffffffff16319081150290604051600060405180830381858888f19350505050158015610bf0573d6000803e3d6000fd5b50610c7e565b60016005819055506000809054906101000a900473ffffffffffffffffffffffffffffffffffffffff1673ffffffffffffffffffffffffffffffffffffffff166108fc3073ffffffffffffffffffffffffffffffffffffffff16319081150290604051600060405180830381858888f19350505050158015610c7c573d6000803e3d6000fd5b505b5b505050505050505050505050565b60035481565b60055481565b60025481565b600160009054906101000a900473ffffffffffffffffffffffffffffffffffffffff1681565b60003411610cd257600080fd5b33600160006101000a81548173ffffffffffffffffffffffffffffffffffffffff021916908373ffffffffffffffffffffffffffffffffffffffff16021790555034600381905550565b600460019054906101000a900460ff1681565b60068181548110610d3c57fe5b906000526020600020016000915090505481565b60095481565b60085481565b600460009054906101000a900460ff1681565b60078181548110610d7c57fe5b906000526020600020016000915090505481565b6000809054906101000a900473ffffffffffffffffffffffffffffffffffffffff1681565b828054828255906000526020600020908101928215610df1579160200282015b82811115610df0578251825591602001919060010190610dd5565b5b509050610dfe9190610e02565b5090565b610e2491905b80821115610e20576000816000905550600101610e08565b5090565b9056fe2331205468652061646472657373206f662074686520666972737420706c6179657220697320696e76616c6964233220546865206c656e677468206f6620746865206d65737361676520697320696e76616c6964233420546865207369676e6572206d75737420626520746865206f726967696e616c2061646472657373233320596f75206d7573742075736520612076616c69642061646472657373206f66206f6e65206f662074686520706c6179657273a265627a7a72305820f8d743cf9c16d0fdbd04214a4aec51bd91a9f668b8b450dbc72bb4476a0b427564736f6c634300050a0032",
  "source": "pragma solidity 0.5.10;\n\n/*\n    We need to keep track of each card in the game and the player lives in each signed message to verify the changes.\n\n    Each card has the following attributes: {\n        canAttack: true | false,\n        cost: 1 to 10,\n        life: 10 to 18,\n        attack: 5 to 9,\n        type: ['fire', 'water', 'wind', 'life', 'death', 'neutral'],\n    }\n    Each player will have up to 5 cards in the field with their life and attack, then the players will have their life\n    so it will be:\n        Player 1 has 58 life points:\n        [card canAttack | 1cost | 5attack | 10life | water] [card 1cost | 5attack | 10life | fire] [card  1cost |5attack | 10life | neutral] [card 1cost | 5attack | 10life | fire] [card 1cost | 5attack | 10life | death]\n        vs\n        Player 2 has 20 life points:\n        [card 1cost | 5attack | 10life | death] [card 1cost | 5attack | 10life | life] [card 1cost | 5attack | 10life | neutral] [card 1cost | 5attack | 10life | neutral] [card 1cost | 5attack | 10life | wind]\n\n    We can pass the cards as an array where each card is 3 values for instance, for the first player it will be:\n        const cardsPlayerOne = [5, 10, 'water', 5, 10, 'fire', 5, 10, 'neutral', 5, 10, 'fire', 5, 10, 'death'] // 5 cards with their values\n        const cardsPlayerTwo = [5, 10, 'death', 5, 10, 'life', 5, 10, 'neutral', 5, 10, 'neutral', 5, 10, 'wind'] // 5 cards with their values\n        const playerOneLife = 58\n        const playerTwoLife = 20\n\n    We don't care about the cards in hand since they don't affect the state of the game. At least for now.\n\n    So the signed object will be {cardsPlayerOne, cardsPlayerTwo, playerOneLife, playerTwoLife, turn}\n*/\n\ncontract Card {\n    address payable public player1;\n    address payable public player2;\n    uint256 public player1Escrow;\n    uint256 public player2Escrow;\n\n    bool public isPlayer1SetUp;\n    bool public isPlayer2SetUp;\n    uint256 public winnerNumber; // Can be 1 | 2 indicating the winner is 1 or the winner is 2\n\n    bytes32[] public cardsPlayerOne;\n    bytes32[] public cardsPlayerTwo;\n    uint256 public playerOneLife; // Remaining life points\n    uint256 public playerTwoLife;\n\n    constructor () public payable {\n        require(msg.value > 0);\n        player1 = msg.sender;\n        player1Escrow = msg.value;\n    }\n\n    function setupPlayer2() public payable {\n        require(msg.value > 0);\n        player2 = msg.sender;\n        player2Escrow = msg.value;\n    }\n\n    /// @notice To verify and save the player balance to distribute it later when the game is completed. The addressOfMessage is important to decide which balance is being updated\n    function verifyPlayerBalance(bytes memory playerMessage, bytes32[] memory cardsCurrentPlayer, uint256 playerLife, uint256 playerNonce, uint256 playerSequence, address addressOfMessage) public {\n        require(player2 != address(0), '#1 The address of the first player is invalid');\n        require(playerMessage.length == 65, '#2 The length of the message is invalid');\n        require(addressOfMessage == player1 || addressOfMessage == player2, '#3 You must use a valid address of one of the players');\n        require((addressOfMessage == player1 && !isPlayer1SetUp) || (addressOfMessage == player2 && !isPlayer2SetUp), '#5 The player is already setup');\n        uint256 escrowToUse = player1Escrow;\n        if(addressOfMessage == player2) escrowToUse = player2Escrow;\n\n        // Recreate the signed message for the first player to verify that the parameters are correct\n        bytes32 message = keccak256(abi.encodePacked(\"\\x19Ethereum Signed Message:\\n32\", keccak256(abi.encodePacked(playerNonce, cardsCurrentPlayer, playerLife, playerSequence))));\n        bytes32 r;\n        bytes32 s;\n        uint8 v;\n\n        assembly {\n            r := mload(add(playerMessage, 32))\n            s := mload(add(playerMessage, 64))\n            v := byte(0, mload(add(playerMessage, 96)))\n        }\n\n        address originalSigner = ecrecover(message, v, r, s);\n        require(originalSigner == addressOfMessage, '#4 The signer must be the original address');\n\n        if(addressOfMessage == player1) {\n            cardsPlayerOne = cardsCurrentPlayer;\n            playerOneLife = playerLife;\n            isPlayer1SetUp = true;\n        } else {\n            cardsPlayerTwo = cardsCurrentPlayer;\n            playerTwoLife = playerLife;\n            isPlayer2SetUp = true;\n        }\n\n        if(isPlayer1SetUp && isPlayer2SetUp) {\n            if(playerOneLife == 0) {\n                winnerNumber = 2;\n                player2.transfer(address(this).balance);\n            } else {\n                winnerNumber = 1;\n                player1.transfer(address(this).balance);\n            }\n        }\n    }\n}\n",
  "sourcePath": "/Users/merunas/Desktop/decentralized-cards/contracts/Card.sol",
  "compiler": {
    "name": "solc",
    "version": "0.5.10+commit.5a6ea5b1.Emscripten.clang"
  },
  "schemaVersion": "3.0.12",
  "updatedAt": "2019-08-20T11:01:15.982Z",
  "devdoc": {
    "methods": {}
  },
  "userdoc": {
    "methods": {
      "verifyPlayerBalance(bytes,bytes32[],uint256,uint256,uint256,address)": {
        "notice": "To verify and save the player balance to distribute it later when the game is completed. The addressOfMessage is important to decide which balance is being updated"
      }
    }
  }
}